:100000000C9474000C9495000C9495000C9495003D
:100010000C9495000C9495000C9495000C9495000C
:100020000C9495000C94D8010C9495000C949500B8
:100030000C9495000C9495000C9495000C949500EC
:100040000C9495000C9495000C9495000C949500DC
:100050000C9495000C9495000C9495000C949500CC
:100060000C9495000C9495000C9495000C949500BC
:100070000C9495000C9495000C9495000C949500AC
:100080000C9495000C9495000C9495000C9495009C
:100090000C9495000C9495000C9495000C9495008C
:1000A0000C9495000C9495000C9495000C9495007C
:1000B0000C9495000C9495000C9495000C9495006C
:1000C0000C9495000C9495000C9495000C9495005C
:1000D0000C9495000C9495000C9495000C9495004C
:1000E0000C9495000C94970011241FBECFEFD1E221
:1000F000DEBFCDBF00E00CBF12E0A0E0B2E0EAEA54
:10010000FAE000E00BBF02C007900D92A432B107E5
:10011000D9F722E0A4E2B2E001C01D92A13BB207F0
:10012000E1F70E9436020C9453050C9400008A30CB
:1001300049F09091C00095FFFCCF8093C60080E00D
:1001400090E008959091C00095FFFCCF9DE09093C2
:10015000C600EFCF9093C5008093C40086E08093E3
:10016000C20088E98093C10008959091C00095FF76
:10017000FCCF8093C60008958091C00087FFFCCF1C
:100180008091C60008958091C000881F8827881F2D
:100190000895FC012081222351F031969091C000F6
:1001A00095FFFCCF2093C60021912111F7CF089530
:1001B00080E092E09093AE028093AD021092C50071
:1001C00082E38093C40086E08093C20088E9809334
:1001D000C100089521E030E001C0220F6A95EAF7DE
:1001E000282381E009F480E0089521E030E001C097
:1001F000220F6A95EAF7822B08951092A9021092B5
:10020000A80286E292E09093A7028093A602089546
:100210002091A8023091A902232B61F0E091A6025F
:10022000F091A702CF0101969093A7028093A602B6
:10023000608308959093A9028093A802FC016083D3
:100240008091A8029091A90201969093A7028093B1
:10025000A6020895E091A802F091A9023097A1F0BA
:100260008091A6029091A702E817F90769F08081B2
:1002700010822091A8023091A9022F5F3F4F309346
:10028000A9022093A80208958FEF0895E091A80293
:10029000F091A902309749F08091A6029091A702AF
:1002A000E817F90711F0808108958FEF089583E42E
:1002B000809380008DE180938100259A80ED97E006
:1002C0009093890080938800089510928000109286
:1002D0008100259A2D980895259A2D9A0895F894CD
:1002E000E8E6F0E0808181608083EBE6F0E08081E9
:1002F0008062808378940895809124020895279ADB
:100300002F9A0895279A2F980895CF93DF93D82F87
:10031000C0E00E947C018130E1F36C2F8D2F0E94A0
:10032000EA00813059F02F980E947C018823E1F384
:10033000CF5FC83071F7DF91CF9108952F9AF4CF36
:10034000CF930E947C018823E1F383B167E00E9490
:10035000EA00C82F0E947C018130E1F381E0C111E5
:1003600001C080E0CF9108951F93CF93DF93C7E042
:1003700010E00E947C018823E1F383B167E00E94D2
:10038000EA00D82F0E947C018130E1F3D11107C02F
:10039000C15078F7812FDF91CF911F9108956C2F75
:1003A000812F0E94F500182FF3CF8091AA020895A3
:1003B0001F920F920FB60F9211240BB60F922F932C
:1003C0003F934F935F936F937F938F939F93AF93DD
:1003D000BF93EF93FF9380912502807A809325024B
:1003E0009091250283B1807A89278032E1F08038AC
:1003F00021F40E947C0181111DC083B180932502EC
:10040000FF91EF91BF91AF919F918F917F916F91EC
:100410005F914F913F912F910F900BBE0F900FBEA8
:100420000F901F90189583B185FB882780F98093E2
:100430002402E3CF83B167E070E090E00E94EA001D
:10044000892BD9F681E08093AA02D7CF0E9482013E
:100450000C9457010E946C010C947F011092AA0227
:10046000EBE6F0E080818068808308950E94D800E8
:100470008EE092E00E9469020E946F010E942E02AB
:100480000E94D501892BE1F30E94B4011F928F9342
:100490008FE192E09F938F930E9455020F900F90EF
:1004A0000F900F9080E090E00895CF93DF93CDB749
:1004B000DEB7AE014A5F5F4FFA0161917191AF0102
:1004C0008091AD029091AE020E949902DF91CF918E
:1004D00008950F931F93CF93DF93E091AD02F091B6
:1004E000AE02238121FF1BC08C01D0E0C0E0F801E7
:1004F00081918F016091AD027091AE02DB0118967F
:10050000ED91FC911997882331F01995892B79F396
:10051000DFEFCFEFECCF8AE01995892B19F08FEF41
:100520009FEF02C08D2F9C2FDF91CF911F910F91D4
:1005300008952F923F924F925F926F927F928F9287
:100540009F92AF92BF92CF92DF92EF92FF920F9362
:100550001F93CF93DF93CDB7DEB72B970FB6F894E9
:10056000DEBF0FBECDBF6C017B018A01FC0117828B
:100570001682838181FFCCC1CE0101963C01F60138
:100580009381F70193FD859193FF81917F018823EA
:1005900009F4BAC1853239F493FD859193FF8191B5
:1005A0007F01853229F4B60190E00E94B904E7CFBB
:1005B000912C212C312CFFE1F315D8F08B3279F0FE
:1005C00038F4803279F08332A1F4232D20611DC0EC
:1005D0008D3261F0803369F4232D216016C0832DA4
:1005E0008260382EE32DE4603E2E2AC0F32DF860A1
:1005F0001DC037FC2DC020ED280F2A3040F08E3270
:10060000B9F436FC81C1232D2064322E19C036FE88
:1006100006C08AE0989E200D1124922E11C0EAE0B7
:100620002E9E200D1124222EF32DF0623F2E08C0A5
:100630008C3621F4832D8068382E02C0883641F430
:10064000F70193FD859193FF81917F018111B3CFD4
:10065000982F9F7D9554933028F40C5F1F4F9FE394
:1006600099830DC0833631F0833771F0833509F0FB
:1006700059C021C0F801808189830E5F1F4F8824F3
:100680008394912C530113C02801F2E04F0E511CAA
:10069000F801A080B18036FE03C0692D70E002C071
:1006A0006FEF7FEFC5010E94AE044C018201F32D74
:1006B000FF773F2E16C0280122E0420E511CF801A0
:1006C000A080B18036FE03C0692D70E002C06FEFDC
:1006D0007FEFC5010E94A3044C01F32DF0683F2E6B
:1006E000820133FC1BC0822D90E088169906B0F47D
:1006F000B60180E290E00E94B9042A94F4CFF5019B
:1007000037FC859137FE81915F01B60190E00E9430
:10071000B90421102A9421E0821A910881149104CD
:1007200071F7E8C0843611F0893641F5F80137FEDB
:1007300007C060817181828193810C5F1F4F08C067
:1007400060817181072E000C880B990B0E5F1F4F83
:10075000F32DFF763F2E97FF09C0909580957095F9
:1007600061957F4F8F4F9F4FF0683F2E2AE030E01A
:10077000A3010E94F504882E861845C0853731F400
:10078000232D2F7EB22E2AE030E025C0932D997FB5
:10079000B92E8F36C1F018F4883579F0B5C080379E
:1007A00019F0883721F0B0C0E92FE061BE2EB4FE09
:1007B0000DC0FB2DF460BF2E09C034FE0AC0292FE6
:1007C0002660B22E06C028E030E005C020E130E00F
:1007D00002C020E132E0F801B7FE07C060817181FC
:1007E000828193810C5F1F4F06C06081718180E020
:1007F00090E00E5F1F4FA3010E94F504882E86181B
:10080000FB2DFF773F2E36FE0DC0232D2E7FA22E0F
:10081000891458F434FE0BC032FC09C0832D8E7E3F
:10082000A82E05C0B82CA32C03C0B82C01C0B92C2D
:10083000A4FE0FC0FE01E80DF11D8081803321F47C
:100840009A2D997EA92E09C0A2FE06C0B394B39436
:1008500004C08A2D867809F0B394A3FC11C0A0FED1
:1008600006C0B21488F4280C922C9B180EC0B21447
:1008700060F4B60180E290E00E94B904B394F7CF2F
:10088000B21418F42B1802C0982C212CA4FE10C00E
:10089000B60180E390E00E94B904A2FE17C0A1FC5B
:1008A00003C088E790E002C088E590E0B6010CC084
:1008B0008A2D867859F0A1FE02C08BE201C080E249
:1008C000A7FC8DE2B60190E00E94B904891438F4C7
:1008D000B60180E390E00E94B9049A94F7CF8A941D
:1008E000F301E80DF11D8081B60190E00E94B9048A
:1008F0008110F5CF222009F442CEB60180E290E0CB
:100900000E94B9042A94F6CFF6018681978102C02D
:100910008FEF9FEF2B960FB6F894DEBF0FBECDBFC3
:10092000DF91CF911F910F91FF90EF90DF90CF90CB
:10093000BF90AF909F908F907F906F905F904F90FF
:100940003F902F900895FC01059061507040011078
:10095000D8F7809590958E0F9F1F0895FC016150E8
:10096000704001900110D8F7809590958E0F9F1FD1
:1009700008950F931F93CF93DF93FB01238121FDF4
:1009800003C08FEF9FEF2CC022FF16C04681578116
:10099000248135814217530744F4A081B1819D0120
:1009A0002F5F3F4F318320838C93268137812F5FC8
:1009B0003F4F3783268314C08B01EC01FB01008479
:1009C000F185E02D1995892BE1F6D80116968D91C8
:1009D0009C911797019617969C938E931697CE012C
:1009E000DF91CF911F910F910895FA01AA27283026
:1009F00051F1203181F1E8946F936E7F6E5F7F4FEC
:100A00008F4F9F4FAF4FB1E03ED0B4E03CD0670F67
:100A1000781F891F9A1FA11D680F791F8A1F911DBA
:100A2000A11D6A0F711D811D911DA11D20D009F40A
:100A300068943F912AE0269F11243019305D31934C
:100A4000DEF6CF010895462F4770405D4193B3E035
:100A50000FD0C9F7F6CF462F4F70405D4A3318F0DC
:100A6000495D31FD4052419302D0A9F7EACFB4E08D
:100A7000A6959795879577956795BA95C9F7009745
:100A80006105710508959B01AC010A2E06945795E6
:100A9000479537952795BA95C9F7620F731F841F3D
:0A0AA000951FA01D0895F894FFCFE4
:100AAA0000000002000000009700000000006265DC
:100ABA0062626F2066612073636869666F20002531
:040ACA0032780A0074
:04000005008002AACB
:00000001FF
