:100000000C9474000C9495000C9495000C9495003D
:100010000C9495000C9495000C9495000C9495000C
:100020000C9495000C9497000C9495000C949500FA
:100030000C9495000C9495000C9495000C949500EC
:100040000C9495000C9495000C9495000C949500DC
:100050000C9495000C9495000C9495000C949500CC
:100060000C9495000C9495000C9495000C949500BC
:100070000C9495000C9495000C9495000C949500AC
:100080000C9495000C9495000C9495000C9495009C
:100090000C9495000C9495000C9495000C9495008C
:1000A0000C9495000C9495000C9495000C9495007C
:1000B0000C9495000C9495000C9495000C9495006C
:1000C0000C9495000C9495000C9495000C9495005C
:1000D0000C9495000C9495000C9495000C9495004C
:1000E0000C9495000C94EA0011241FBECFEFD1E2CE
:1000F000DEBFCDBF00E00CBF12E0A0E0B2E0EAED51
:10010000F3E000E00BBF02C007900D92A232B107EE
:10011000D9F722E0A2E2B2E001C01D92AE3AB207E6
:10012000E1F70E94A2010C94EB010C9400001F92D5
:100130000F920FB60F9211242F938F939F9323B199
:1001400026FB882780F990E0909323028093220277
:100150009F918F912F910F900FBE0F901F90189528
:10016000F89426982E9AE8E6F0E0808181608083FA
:10017000EBE6F0E080818064808378940895279A8C
:1001800085B1897485B90895CF93C0E0809122022A
:10019000909123020197D1F36C2F8AEA0E943D01CE
:1001A000882399F08EE092E00E94BB012F9A809103
:1001B000220290912302892BD1F385B1897485B9EC
:1001C000CF5FC83019F7CF91089588E192E00E947F
:1001D000BB01EDCF8A3049F09091C00095FFFCCF74
:1001E0008093C60080E090E008959091C00095FF54
:1001F000FCCF9DE09093C600EFCF9093C500809315
:10020000C40086E08093C20088E98093C10008950D
:100210009091C00095FFFCCF8093C6000895809117
:10022000C00087FFFCCF8091C60008958091C00078
:10023000881F8827881F0895FC012081222351F000
:1002400031969091C00095FFFCCF2093C60021917C
:100250002111F7CF089580E092E09093AB02809354
:10026000AA021092C50082E38093C40086E08093C6
:10027000C20088E98093C100089521E030E001C008
:10028000220F6A95EAF7282381E009F480E00895B7
:10029000109227021092260288E292E090932502A3
:1002A0008093240208952091260230912702232B67
:1002B00061F0E0912402F0912502CF010196909324
:1002C00025028093240260830895909327028093EF
:1002D0002602FC01608380912602909127020196FC
:1002E00090932502809324020895E0912602F091D4
:1002F00027023097A1F08091240290912502E817FF
:10030000F90769F08081108220912602309127023E
:100310002F5F3F4F309327022093260208958FEFDF
:100320000895E0912602F0912702309749F08091DC
:10033000240290912502E817F90711F080810895B1
:100340008FEF08950E942B01F89426982E9AE8E6E4
:10035000F0E0808181608083EBE6F0E08081806462
:1003600080837894279A85B1897485B90E94C400E6
:1003700080E090E008950F931F93CF93DF93E09177
:10038000AA02F091AB02238121FF1BC08C01D0E0B7
:10039000C0E0F80181918F016091AA027091AB02D7
:1003A000DB011896ED91FC911997882331F019958E
:1003B000892B79F3DFEFCFEFECCF8AE01995892B0A
:1003C00019F08FEF9FEF02C08D2F9C2FDF91CF91FF
:0A03D0001F910F910895F894FFCFDC
:1003DA000000000200000000EA000000000057527E
:1003EA004954494E4720310057524954494E4720F3
:0203FA003000D1
:00000001FF
